:100000000EC015C014C013C012C011C010C00FC064
:100010000EC00DC00CC00BC00AC009C008C011241E
:100020001FBECFE5D1E0DEBFCDBF02D02FC0E8CFED
:100030008AE387BB81B581BD81B5886081BD81B50B
:10004000806281BD81B581BD81B581BD81B581BD34
:1000500085B7806185BF85B785BF80E188BB2FE309
:100060008DE093E0215080409040E1F700C0000017
:1000700018BA2FE38DE093E0215080409040E1F7E3
:1000800000C0000085B7806285BFFCCFF894FFCF29
:00000001FF
