S00D000061746D656C2E7372656304
S11300000EC028C027C026C025C024C023C022C0DB
S113001021C020C01FC01EC02FC01CC01BC0112483
S11300201FBECFE5D1E0DEBFCDBF10E0A0E6B0E05B
S1130030E0E9F2E002C005900D92A036B107D9F7CD
S113004020E0A0E6B0E001C01D92A236B207E1F7BD
S11300502AD01CC1D5CF009741F0E9EFF0E03197E9
S1130060F1F700C000000197C1F70895009719F057
S113007000000197E9F708951F920F920FB60F92AF
S113008011248F939F938091600090916100019659
S113009090936100809360009F918F910F900FBEA9
S11300A00F901F90189587E287BB81E781BD7894F4
S11300B06894EE24E2F8F12C1CC0C19AC801D6DF82
S11300C0C198C801D3DF2197C1F70150110919F074
S11300D0C5E0D0E0F2CF81E0C81AD10819F000E5FC
S11300E010E0F6CF84EF91E0B6DF81E0E81AF10882
S11300F031F00F2EF3E0CF2ED12CF02DF0CF0DE305
S113010010E00F2EF3E2AF2EF02D0F2EF7E8CF2ED6
S1130110F02D0F2EF7E0DF2EF02D0F2EF2E2BF2E82
S1130120F02DC09A84E690E096DFA7B8C6B8369A58
S11301303699FECF85B1D6B8C09890E08536910542
S1130140B4F1C29A84E690E086DFB7B8C6B8369AAE
S11301503699FECF85B1D6B8C29890E08436910521
S113016074F025C0C19ACE0181DFC198CE017EDF33
S11301702197C1F781E0E81AF10831F408C00F2E85
S1130180F5E0EF2EF12CF02DC4E6D0E0EBCFC0E586
S1130190D0E0C19ACE016ADFC198CE0167DFC19A6F
S11301A0CE0164DFC198CE0161DF219791F788EE1B
S11301B093E051DF0150110909F0B3CF85B7877E71
S11301C0806185BF0F2EF3E2FF2EF02D07E817E0C4
S11301D00F2EF2E2EF2EF02D8091600090916100DD
S11301E0863991050CF44AC01092610010926000A7
S11301F0C09A84E690E02FDFF7B806B9369A3699AC
S1130200FECF85B116B9C09890E085369105B4F15A
S1130210C29A84E690E01FDFE7B806B9369A3699A9
S1130220FECF85B116B9C29890E08436910574F07A
S113023025C0C19ACE011ADFC198CE0117DF2197DC
S1130240C1F781E0C81AD10831F408C00F2EF5E0D7
S1130250CF2ED12CF02DC4E6D0E0EBCFC0E5D0E01A
S1130260C19ACE0103DFC198CE0100DFC19ACE014D
S1130270FDDEC198CE01FADE219791F785B7806241
S113028085BF889585B78F7D85BFA6CFF894FFCFAE
S9030000FC
