:100000000EC015C014C013C012C011C010C00FC064
:100010000EC00DC00CC00BC00AC009C008C011241E
:100020001FBECFE5D1E0DEBFCDBF0FD02FC0E8CFE0
:100030008F70806287B987E886B9369A3699FECF85
:1000400085B197E096B990E008958AE387BB8FE089
:1000500081BDC0E1C5BF81E090E0EADFC8BB2FE30E
:100060008DE093E0215080409040E1F700C0000017
:1000700018BA2FE38DE093E0215080409040E1F7E3
:1000800000C0000085B7806285BFFCCFF894FFCF29
:00000001FF
