S00D000061746D656C2E7372656304
S11300000EC028C027C026C025C024C023C022C0DB
S113001021C020C01FC01EC01EC01CC01BC0112494
S11300201FBECFE5D1E0DEBFCDBF10E0A0E6B0E05B
S1130030EEEBF0E002C005900D92A036B107D9F7BF
S113004020E0A0E6B0E001C01D92A236B207E1F7BD
S113005019D033C0D5CF1F920F920FB60F9211242F
S11300608F939F938091600090916100019690938B
S11300706100809360009F918F910F900FBE0F904D
S11300801F90189587E287BB86E581BD789485B774
S1130090877E806185BF80916000909161000A979E
S11300A024F0109261001092600085B7806285BFD1
S11100B0889585B78F7D85BFEECFF894FFCF7E
S9030000FC
