S00D000061746D656C2E7372656304
S11300000EC020C01FC01EC01DC01CC01BC01AC013
S113001019C018C017C016C015C014C013C01124CD
S11300201FBECFE5D1E0DEBFCDBF10E0A0E6B0E05B
S1130030EAE8F1E002C005900D92A036B107D9F7C5
S11300405DD0A1C0DDCFCF93DF93C0E0D0E0CE017F
S113005084D0882339F02196C138D105C1F780E0D6
S113006090E002C08C2F9D2FDF91CF910895EBDF9C
S1130070009729F480E890E070D090E0089501970B
S11300806CD090E00895CF93DF93EC01F0DF8C17F0
S11300909D07A1F4D8DFEC018038910549F460E0B4
S11300A080E090E062D061E080E890E05ED006C03D
S11300B060E001965AD061E0CE0157D0DF91CF9134
S11300C00895CF93DF93BFDF009759F480E890E061
S11300D044D0682F70E06F5F7F4F80E890E045D098
S11300E00AC0EC012197CE0138D0682F70E06F5F11
S11300F07F4FCE013AD0DF91CF9108958AE387BB39
S1130100789488E781BD87E086B985B7877E80616A
S113011085BF83E090E0B7DFAADF0397A9F480E10D
S113012088BB2FEF82ED9EE5215080409040E1F79F
S113013000C0000018BA2FEF82ED9EE521508040E8
S11301409040E1F700C00000BCDF85B7806285BF46
S1130150889585B78F7D85BFF8CFE199FECF1FBA0B
S11301608EBBE09A99278DB30895262FE199FECF8F
S11301701CBA1FBA8EBB2DBB0FB6F894E29AE19A53
S10D01800FBE01960895F894FFCF16
S9030000FC
