S00D000061746D656C2E7372656304
S11300000EC020C01FC01EC01DC01CC01BC01AC013
S113001019C018C017C016C024C014C013C01124BE
S11300201FBECFE5D1E0DEBFCDBF10E0A0E6B0E05B
S1130030E4EFF0E002C005900D92A036B107D9F7C5
S113004035D056C0DDCFCF93DF93C0E0D0E060E081
S1130050CE0140D02196C138D105C9F7DF91CF91A7
S113006008951F920F920FB60F9211242F938F931E
S11300709F9380E188BB2FE38DE093E02150804083
S11300809040E1F700C0000018BA2FE38DE093E040
S1130090215080409040E1F700C000009F918F9173
S11300A02F910F900FBE0F901F9018958AE387BB76
S11300B07894C9DF88E781BD87E086B985B7877EF4
S11300C0806185BF85B7806285BF889585B78F7D40
S11300D085BFF8CF262FE199FECF1CBA1FBA8EBB7D
S11300E02DBB0FB6F894E29AE19A0FBE01960895DB
S10700F0F894FFCFAE
S9030000FC
